:100000000C942A000C943F000C943F000C943F0089
:100010000C943F000C943F000C943F000C943F0064
:100020000C943F000C943F000C943F000C943F0054
:100030000C943F000C943F000C943F000C943F0044
:100040000C943F000C943F000C943F000C943F0034
:100050000C943F0011241FBECFE5D8E0DEBFCDBF1A
:1000600010E0A0E6B0E0E8E9FAE002C005900D92E9
:10007000AE3BB107D9F70E9427010C944A050C94B6
:10008000000041E060E082E40E94470283EF91E0DB
:100090000197F1F700C0000040E060E082E40E94B8
:1000A000470283EF91E00197F1F700C00000089547
:1000B000682F81E40E94140340E061E082E40E9422
:1000C00047020E94410089EF90E00197F1F700C0DC
:1000D000000008958FE493EC0197F1F700C0000051
:1000E00041E060E081E40E94D70141E061E081E409
:1000F0000E94D70141E062E081E40E94D70141E023
:1001000063E081E40E94D70141E064E081E40E9461
:10011000D70141E065E081E40E94D70141E066E05B
:1001200081E40E94D70141E067E081E40E94D701A9
:1001300041E060E082E40E94D70141E062E082E4B5
:100140000E94D70141E061E082E40E94D70140E0D3
:1001500062E082E40E94470288E30E94580089EF2F
:1001600090E00197F1F700C000008EE00E94580077
:1001700089EF90E00197F1F700C0000081E00E9454
:10018000580083EC99E00197F1F700C0000086E089
:100190000E94580089EF90E00197F1F700C000003D
:1001A0000895682F81E40E94140341E061E082E435
:1001B0000E9447020E94410089EF90E00197F1F709
:1001C00000C000000895CF93DF93EC0103C00E94AC
:1001D000D100219688818111FACFDF91CF910895C6
:1001E00081E00E94580083EC99E00197F1F700C08C
:1001F000000008959FEF980F923070F4613170F411
:10020000662371F0813019F42FE7260F0AC082307F
:1002100041F42FEB260F05C020E803C020E801C001
:1002200020E8822F0E94580089EF90E00197F1F7B3
:1002300000C00000089541E00E94D701089541E008
:100240000E944702089540E00E944702089561E03D
:1002500083E40E941B0162E083E40E941B0161E0D1
:1002600083E40E941F010E946A0080E690E00E94E1
:10027000E30061E082E00E94FA0081E790E00E94E2
:10028000E30010E0D0E0C0E001C0D0E060E084E432
:100290000E94B7028130E1F5C1113AC01330C0F5B8
:1002A000C1E0C10F6BE00E94FA0081E3810F0E9460
:1002B000D100C330B1F40E94F00081E890E00E94C8
:1002C000E30061E082E00E94FA0082E990E00E948F
:1002D000E30062E083E40E941F0161E083E40E9486
:1002E000230160E070E084EB92EC0E9477032FE33F
:1002F0008DE093E0215080409040E1F700C0000085
:1003000060E070E0CB010E9477031C2FC1E003C0C6
:10031000811101C0C0E061E084E40E94B702813035
:1003200009F041C0D1113FC01123E9F1DFEFD10F36
:100330006AE00E94FA00115D812F0E94D1000E94A4
:10034000F00081EA90E00E94E300812F0E94D1003A
:100350008BE690E00E94E30061E082E00E94FA00F8
:100360008CEA90E00E94E30062E083E40E942301B3
:1003700061E083E40E941F0160E070E084EB92EC96
:100380000E9427032FE38DE093E0215080409040AE
:10039000E1F700C0000060E070E0CB010E9427039D
:1003A0001D2FD1E073CF882309F46FCF6FCF823434
:1003B00019F118F4813439F008958334B1F184349B
:1003C00009F44CC00895413059F42AB381E090E01B
:1003D00002C0880F991F6A95E2F7822B8ABB0895A5
:1003E0002AB381E090E002C0880F991F6A95E2F776
:1003F000809582238ABB0895413059F427B381E068
:1004000090E002C0880F991F6A95E2F7822B87BBA4
:10041000089527B381E090E002C0880F991F6A9584
:10042000E2F78095822387BB0895413059F424B3C5
:1004300081E090E002C0880F991F6A95E2F7822B55
:1004400084BB089524B381E090E002C0880F991F17
:100450006A95E2F78095822384BB0895413059F470
:1004600021B381E090E002C0880F991F6A95E2F7FE
:10047000822B81BB089521B381E090E002C0880FF8
:10048000991F6A95E2F78095822381BB0895823493
:1004900019F118F4813439F008958334B1F18434BA
:1004A00009F44CC00895413059F42BB381E090E039
:1004B00002C0880F991F6A95E2F7822B8BBB0895C3
:1004C0002BB381E090E002C0880F991F6A95E2F794
:1004D000809582238BBB0895413059F428B381E085
:1004E00090E002C0880F991F6A95E2F7822B88BBC3
:1004F000089528B381E090E002C0880F991F6A95A3
:10050000E2F78095822388BB0895413059F425B3E2
:1005100081E090E002C0880F991F6A95E2F7822B74
:1005200085BB089525B381E090E002C0880F991F34
:100530006A95E2F78095822385BB0895413059F48E
:1005400022B381E090E002C0880F991F6A95E2F71C
:10055000822B82BB089522B381E090E002C0880F15
:10056000991F6A95E2F78095822382BB08958234B1
:10057000E9F018F4813431F055C0833459F18434F2
:10058000E9F150C049B381E090E09C01062E02C021
:10059000220F331F0A94E2F7842F90E082239323E3
:1005A00002C0959587956A95E2F7089546B381E074
:1005B00090E09C01062E02C0220F331F0A94E2F73E
:1005C000842F90E08223932302C0959587956A95A6
:1005D000E2F7089543B381E090E09C01062E02C04B
:1005E000220F331F0A94E2F7842F90E08223932393
:1005F00002C0959587956A95E2F7089540B381E02A
:1006000090E09C01062E02C0220F331F0A94E2F7ED
:10061000842F90E08223932302C0959587956A9555
:10062000E2F7089580E00895823459F018F4813497
:1006300031F00895833439F0843439F008956BBB78
:10064000089568BB089565BB089562BB0895CF9275
:10065000DF92EF92FF926B017C0120E030E044EBEF
:1006600052E40E94B40488237CF021E63BE046EB90
:100670005BE3C701B6010E94B90420E030E040EC22
:100680005FE30E94C8030EC021E63BE046EB5BE35C
:10069000C701B6010E94B90420E030E040EC5FE3FE
:1006A0000E94C80321B3206221BB2FB522602FBD59
:1006B0002EB528602EBD2EB520612EBD20E030E085
:1006C0004AE754E40E94B9040E9434047BBD6ABD29
:1006D0008FE19EE497BD86BD8EB581608EBD8FB5DE
:1006E00080688FBDFF90EF90DF90CF900895CF92FC
:1006F000DF92EF92FF926B017C0120E030E044EB4F
:1007000052E40E94B40488237CF021E63BE046EBEF
:100710005BE3C701B6010E94B90420E030E040EC81
:100720005FE30E94C8030EC021E63BE046EB5BE3BB
:10073000C701B6010E94B90420E030E040EC5FE35D
:100740000E94C80321B3206121BB2FB522602FBDB9
:100750002EB528602EBD2EB520612EBD20E030E0E4
:100760004AE754E40E94B9040E94340479BD68BD8C
:100770008FE19EE497BD86BD8EB581608EBD8FB53D
:1007800080628FBDFF90EF90DF90CF90089550581A
:10079000BB27AA270E94DF030C947A040E946C04F2
:1007A00038F00E94730420F039F49F3F19F426F4C6
:1007B0000C9469040EF4E095E7FB0C946304E92FB4
:1007C0000E948B0458F3BA176207730784079507D2
:1007D00020F079F4A6F50C94AD040EF4E0950B2E00
:1007E000BA2FA02D0B01B90190010C01CA01A00183
:1007F0001124FF27591B99F0593F50F4503E68F1DE
:100800001A16F040A22F232F342F4427585FF3CF1E
:10081000469537952795A795F0405395C9F77EF4EF
:100820001F16BA0B620B730B840BBAF09150A1F038
:10083000FF0FBB1F661F771F881FC2F70EC0BA0FBE
:10084000621F731F841F48F4879577956795B79546
:10085000F7959E3F08F0B0CF9395880F08F0992741
:10086000EE0F9795879508950E94930488F09F57FF
:1008700098F0B92F9927B751B0F0E1F0660F771FC4
:10088000881F991F1AF0BA95C9F714C0B13091F0BA
:100890000E94AD04B1E008950C94AD04672F782F49
:1008A0008827B85F39F0B93FCCF38695779567957F
:1008B000B395D9F73EF490958095709561957F4FEB
:1008C0008F4F9F4F089597F99F6780E870E060E031
:1008D00008959FEF80EC089500240A9416161706D9
:1008E00018060906089500240A9412161306140621
:1008F00005060895092E0394000C11F4882352F084
:10090000BB0F40F4BF2B11F460FF04C06F5F7F4F3B
:100910008F4F9F4F089557FD9058440F551F59F022
:100920005F3F71F04795880F97FB991F61F09F3FDC
:1009300079F087950895121613061406551FF2CF05
:100940004695F1DF08C0161617061806991FF1CF55
:1009500086957105610508940895E894BB2766277C
:100960007727CB0197F908950E94260508F48FEFA9
:1009700008950E94CC040C947A040E946C0438F010
:100980000E94730420F0952311F00C9463040C94DE
:10099000690411240C94AE040E948B0470F3959F9B
:1009A000C1F3950F50E0551F629FF001729FBB2766
:1009B000F00DB11D639FAA27F00DB11DAA1F649F02
:1009C0006627B00DA11D661F829F2227B00DA11DB5
:1009D000621F739FB00DA11D621F839FA00D611D3B
:1009E000221F749F3327A00D611D231F849F600D5C
:1009F000211D822F762F6A2F11249F5750409AF085
:100A0000F1F088234AF0EE0FFF1FBB1F661F771F10
:100A1000881F91505040A9F79E3F510580F00C94DB
:100A200063040C94AE045F3FE4F3983ED4F38695E0
:100A300077956795B795F795E7959F5FC1F7FE2B7B
:100A4000880F911D9695879597F90895990F00083D
:100A5000550FAA0BE0E8FEEF16161706E807F90790
:100A6000C0F012161306E407F50798F0621B730B2B
:100A7000840B950B39F40A2661F0232B242B252BAC
:100A800021F408950A2609F4A140A6958FEF811D4F
:080A9000811D0895F894FFCFC9
:100A980074686572652061726520302063617273C5
:100AA8000067617261676520697320656D7074798C
:100AB8000074686572652061726520332063617215
:100AC80073006761726167652069732066756C6C75
:100AD80000746865726520617265200067617261E3
:0E0AE8006765206861732073706163650000AC
:00000001FF
